{
  "contractName": "basicMath",
  "abi": [
    {
      "constant": true,
      "inputs": [
        {
          "internalType": "uint256",
          "name": "_numberA",
          "type": "uint256"
        },
        {
          "internalType": "uint256",
          "name": "_numberB",
          "type": "uint256"
        }
      ],
      "name": "add",
      "outputs": [
        {
          "internalType": "uint256",
          "name": "",
          "type": "uint256"
        }
      ],
      "payable": false,
      "stateMutability": "pure",
      "type": "function"
    }
  ],
  "bytecode": "0x608060405234801561001057600080fd5b5060b88061001f6000396000f3fe6080604052348015600f57600080fd5b506004361060285760003560e01c8063771602f714602d575b600080fd5b606060048036036040811015604157600080fd5b8101908080359060200190929190803590602001909291905050506076565b6040518082815260200191505060405180910390f35b600081830190509291505056fea265627a7a72315820ea49aa43b2b6de6c332cae0d01376e5512ee6b835eec1a9c77e0dddbd7a0c27264736f6c63430005100032",
  "source": "// SPDX-License-Identifier: MIT\r\n// pragma solidity ^0.8.0;\r\npragma solidity >=0.4.21 <0.6.0;\r\n\r\n\r\ncontract basicMath {\r\n    uint256 constant private MAX_UINT256 = 2**256 - 1;\r\n\r\n    function add(uint256 _numberA, uint256 _numberB) public pure returns(uint256) {\r\n        return _numberA + _numberB;\r\n    }\r\n}",
  "sourcePath": "C:\\Users\\Geckko\\gitHub\\Starting With Blockchain Solidity\\Blockchain_First_Token_Eth\\contracts\\basicMath.sol",
  "compiler": {
    "name": "solc",
    "version": "0.5.16+commit.9c3226ce.Emscripten.clang"
  },
  "schemaVersion": "3.4.11",
  "updatedAt": "2023-02-13T12:04:11.403Z",
  "devdoc": {
    "methods": {}
  },
  "userdoc": {
    "methods": {}
  }
}